0179066350999992015010100004+47133+007617FM-12+048299999V0202001N001019999999N999999999-01061-01151103901ADDAA101000091AA206000091MA1999999097591MD1510021+9999OD139900211999OD259900101999REMSYN08806635 03/// /2002 11106 21115 39759 40390 55002 60001 333 55300 20000 60005 91104 91202=
0162066350999992015010101004+47133+007617FM-12+048299999V0201301N000519999999N999999999-01131-01241103931ADDAA101000091MA1999999097601MD1510001+9999OD139900151999OD259900051999REMSYN08206635 23/// /1301 11113 21124 39760 40393 55000 333 55300 20000 60005 91103 91201=
0162066350999992015010102004+47133+007617FM-12+048299999V0201801N001019999999N999999999-01161-01171103981ADDAA101000091MA1999999097641MD1210051+9999OD139900151999OD259900101999REMSYN08206635 23/// /1802 11116 21117 39764 40398 52005 333 55300 20000 60005 91103 91202=
0162066350999992015010103004+47133+007617FM-12+048299999V0202401N000519999999N999999999-01141-01241103991ADDAA101000091MA1999999097651MD1210061+9999OD139900151999OD259900101999REMSYN08206635 23/// /2401 11114 21124 39765 40399 52006 333 55300 20000 60005 91103 91202=
0162066350999992015010104004+47133+007617FM-12+048299999V0202201N001019999999N999999999-00971-01121103981ADDAA101000091MA1999999097681MD1210081+9999OD139900211999OD259900151999REMSYN08206635 23/// /2202 11097 21112 39768 40398 52008 333 55300 20000 60005 91104 91203=
0162066350999992015010105004+47133+007617FM-12+048299999V0200701N000519999999N999999999-01111-01231104051ADDAA101000091MA1999999097721MD1210081+9999OD139900151999OD259900101999REMSYN08206635 23/// /0701 11111 21123 39772 40405 52008 333 55300 20000 60005 91103 91202=
0304066350999992015010106004+47133+007617FM-12+048299999V0201601N00051000601CN000300199-01221-01301104091ADDAA101000091AA212000091AA324000091AJ100113100110099AL19900031AY141021AY211021GF109991999999999999999999IA1239KA1240N-01341MA1999999097731MD1210081+9999MW1451REMSYN13606635 01/03 91601 11122 21130 39773 40409 52008 60002 74541 333 21134 3/106 47011 55064 55300 20000 60005 70000 90768 93100 91104 91203=
0162066350999992015010107004+47133+007617FM-12+048299999V0202201N000519999999N999999999-00931-00931104031ADDAA101000091MA1999999097741MD1210061+9999OD139900101999OD259900051999REMSYN08206635 23/// /2201 11093 21093 39774 40403 52006 333 55300 20000 60005 91102 91201=
0162066350999992015010108004+47133+007617FM-12+048299999V0202301N000519999999N999999999-00761-00991104051ADDAA101000091MA1999999097801MD1210081+9999OD139900101999OD259900051999REMSYN08206635 23/// /2301 11076 21099 39780 40405 52008 333 55300 20043 60005 91102 91201=
0162066350999992015010109004+47133+007617FM-12+048299999V0202501N000519999999N999999999-00841-01061104101ADDAA101000091MA1999999097831MD1210101+9999OD139900101999OD259900051999REMSYN08206635 23/// /2501 11084 21106 39783 40410 52010 333 55300 20274 60005 91102 91201=
0162066350999992015010110004+47133+007617FM-12+048299999V0209999C000019999999N999999999-00721-00951104131ADDAA101000091MA1999999097881MD1210141+9999OD139900051999OD259900051999REMSYN08206635 23/// /0000 11072 21095 39788 40413 52014 333 55300 20716 60005 91101 91201=
0162066350999992015010111004+47133+007617FM-12+048299999V0202801N001019999999N999999999-00541-00651104051ADDAA101000091MA1999999097851MD1210051+9999OD139900211999OD259900151999REMSYN08206635 23/// /2802 11054 21065 39785 40405 52005 333 55304 20925 60005 91104 91203=
0233066350999992015010112004+47133+007617FM-12+048299999V0201801N00051000601CN000300199-00421-00561104031ADDAA101000091AA206000091AY141021AY221021GF109991999999999999999999MA1999999097861MD1990031+9999MW1451OD139900261999OD259900151999REMSYN09406635 01/03 91801 11042 21056 39786 40403 50003 60001 74542 333 55304 21094 60005 91105 91203=
0162066350999992015010113004+47133+007617FM-12+048299999V0202901N000519999999N999999999-00361-00521103981ADDAA101000091MA1999999097821MD1710061+9999OD139900151999OD259900051999REMSYN08206635 23/// /2901 11036 21052 39782 40398 57006 333 55300 20904 60005 91103 91201=
0162066350999992015010114004+47133+007617FM-12+048299999V0201401N000519999999N999999999-00361-00471103971ADDAA101000091MA1999999097811MD1710041+9999OD139900151999OD259900051999REMSYN08206635 23/// /1401 11036 21047 39781 40397 57004 333 55300 20551 60005 91103 91201=
0162066350999992015010115004+47133+007617FM-12+048299999V0201801N000519999999N999999999-00381-00481103941ADDAA101000091MA1999999097781MD1710081+9999OD139900211999OD259900101999REMSYN08206635 23/// /1801 11038 21048 39778 40394 57008 333 55300 20266 60005 91104 91202=
0162066350999992015010116004+47133+007617FM-12+048299999V0202001N000519999999N999999999-00681-00721104011ADDAA101000091MA1999999097781MD1710041+9999OD139900151999OD259900151999REMSYN08206635 23/// /2001 11068 21072 39778 40401 57004 333 55300 20068 60005 91103 91203=
0162066350999992015010117004+47133+007617FM-12+048299999V0200801N001019999999N999999999-00961-01071104131ADDAA101000091MA1999999097831MD1310021+9999OD139900211999OD259900151999REMSYN08206635 23/// /0802 11096 21107 39783 40413 53002 333 55300 20000 60005 91104 91203=
0275066350999992015010118004+47133+007617FM-12+048299999V0201101N001019999999N000500199-00771-00861104091ADDAA101000091AA212000091AJ100113100110099AL19900031AY141021AY211021GF100995999999999999999999IA1239KA1120M-00301MA1999999097831MD1210051+9999MW1441REMSYN11806635 01/05 01102 11077 21086 39783 40409 52005 60002 74441 333 11030 47011 55300 20000 60005 90766 93100 91104 91203=
0162066350999992015010119004+47133+007617FM-12+048299999V0200901N000519999999N999999999-00811-00841104061ADDAA101000091MA1999999097801MD1990021+9999OD139900101999OD259900101999REMSYN08206635 23/// /0901 11081 21084 39780 40406 50002 333 55300 20000 60005 91102 91202=
